{
  "contractName": "NftFactory",
  "abi": [
    {
      "anonymous": false,
      "inputs": [
        {
          "indexed": false,
          "internalType": "string",
          "name": "_name",
          "type": "string"
        },
        {
          "indexed": false,
          "internalType": "address",
          "name": "_contractNft",
          "type": "address"
        },
        {
          "indexed": false,
          "internalType": "string",
          "name": "_hashNft",
          "type": "string"
        },
        {
          "indexed": false,
          "internalType": "string",
          "name": "_linkNft",
          "type": "string"
        },
        {
          "indexed": false,
          "internalType": "string",
          "name": "_description",
          "type": "string"
        },
        {
          "indexed": false,
          "internalType": "string",
          "name": "_category",
          "type": "string"
        },
        {
          "indexed": false,
          "internalType": "uint256",
          "name": "_price",
          "type": "uint256"
        }
      ],
      "name": "createdNft",
      "type": "event"
    },
    {
      "inputs": [
        {
          "internalType": "uint256",
          "name": "",
          "type": "uint256"
        }
      ],
      "name": "nftDetailsArray",
      "outputs": [
        {
          "internalType": "string",
          "name": "name",
          "type": "string"
        },
        {
          "internalType": "address",
          "name": "contractNft",
          "type": "address"
        },
        {
          "internalType": "string",
          "name": "hashNft",
          "type": "string"
        },
        {
          "internalType": "string",
          "name": "linkNft",
          "type": "string"
        },
        {
          "internalType": "string",
          "name": "description",
          "type": "string"
        },
        {
          "internalType": "string",
          "name": "category",
          "type": "string"
        },
        {
          "internalType": "uint256",
          "name": "price",
          "type": "uint256"
        }
      ],
      "stateMutability": "view",
      "type": "function"
    },
    {
      "inputs": [
        {
          "internalType": "uint256",
          "name": "_tokenId",
          "type": "uint256"
        },
        {
          "internalType": "string",
          "name": "_name",
          "type": "string"
        },
        {
          "internalType": "address",
          "name": "_contractNft",
          "type": "address"
        },
        {
          "internalType": "string",
          "name": "_hashNft",
          "type": "string"
        },
        {
          "internalType": "string",
          "name": "_linkNft",
          "type": "string"
        },
        {
          "internalType": "string",
          "name": "_description",
          "type": "string"
        },
        {
          "internalType": "string",
          "name": "_category",
          "type": "string"
        },
        {
          "internalType": "uint256",
          "name": "_price",
          "type": "uint256"
        }
      ],
      "name": "_createNft",
      "outputs": [],
      "stateMutability": "nonpayable",
      "type": "function"
    },
    {
      "inputs": [],
      "name": "showNfts",
      "outputs": [
        {
          "components": [
            {
              "internalType": "string",
              "name": "name",
              "type": "string"
            },
            {
              "internalType": "address",
              "name": "contractNft",
              "type": "address"
            },
            {
              "internalType": "string",
              "name": "hashNft",
              "type": "string"
            },
            {
              "internalType": "string",
              "name": "linkNft",
              "type": "string"
            },
            {
              "internalType": "string",
              "name": "description",
              "type": "string"
            },
            {
              "internalType": "string",
              "name": "category",
              "type": "string"
            },
            {
              "internalType": "uint256",
              "name": "price",
              "type": "uint256"
            }
          ],
          "internalType": "struct NftFactory.nftDetails[]",
          "name": "",
          "type": "tuple[]"
        }
      ],
      "stateMutability": "view",
      "type": "function"
    },
    {
      "inputs": [
        {
          "internalType": "address",
          "name": "_ownerAddr",
          "type": "address"
        }
      ],
      "name": "nftOwner",
      "outputs": [
        {
          "internalType": "uint256[]",
          "name": "",
          "type": "uint256[]"
        }
      ],
      "stateMutability": "view",
      "type": "function"
    }
  ],
  "bytecode": "0x608060405234801561001057600080fd5b5061153c806100206000396000f3fe608060405234801561001057600080fd5b506004361061004c5760003560e01c806353f830fb14610051578063b9e5574d1461006f578063dd8abf421461008b578063edbee17a146100c1575b600080fd5b6100596100f1565b6040516100669190610e15565b60405180910390f35b61008960048036038101906100849190610fd8565b61048a565b005b6100a560048036038101906100a0919061111a565b610707565b6040516100b897969594939291906111af565b60405180910390f35b6100db60048036038101906100d69190611241565b610a21565b6040516100e8919061131d565b60405180910390f35b60606000805480602002602001604051908101604052809291908181526020016000905b8282101561048157838290600052602060002090600702016040518060e00160405290816000820180546101489061136e565b80601f01602080910402602001604051908101604052809291908181526020018280546101749061136e565b80156101c15780601f10610196576101008083540402835291602001916101c1565b820191906000526020600020905b8154815290600101906020018083116101a457829003601f168201915b505050505081526020016001820160009054906101000a900473ffffffffffffffffffffffffffffffffffffffff1673ffffffffffffffffffffffffffffffffffffffff1673ffffffffffffffffffffffffffffffffffffffff1681526020016002820180546102309061136e565b80601f016020809104026020016040519081016040528092919081815260200182805461025c9061136e565b80156102a95780601f1061027e576101008083540402835291602001916102a9565b820191906000526020600020905b81548152906001019060200180831161028c57829003601f168201915b505050505081526020016003820180546102c29061136e565b80601f01602080910402602001604051908101604052809291908181526020018280546102ee9061136e565b801561033b5780601f106103105761010080835404028352916020019161033b565b820191906000526020600020905b81548152906001019060200180831161031e57829003601f168201915b505050505081526020016004820180546103549061136e565b80601f01602080910402602001604051908101604052809291908181526020018280546103809061136e565b80156103cd5780601f106103a2576101008083540402835291602001916103cd565b820191906000526020600020905b8154815290600101906020018083116103b057829003601f168201915b505050505081526020016005820180546103e69061136e565b80601f01602080910402602001604051908101604052809291908181526020018280546104129061136e565b801561045f5780601f106104345761010080835404028352916020019161045f565b820191906000526020600020905b81548152906001019060200180831161044257829003601f168201915b5050505050815260200160068201548152505081526020019060010190610115565b50505050905090565b60006040518060e001604052808981526020018873ffffffffffffffffffffffffffffffffffffffff168152602001878152602001868152602001858152602001848152602001838152509080600181540180825580915050600190039060005260206000209060070201600090919091909150600082015181600001908051906020019061051a929190610b05565b5060208201518160010160006101000a81548173ffffffffffffffffffffffffffffffffffffffff021916908373ffffffffffffffffffffffffffffffffffffffff160217905550604082015181600201908051906020019061057e929190610b05565b50606082015181600301908051906020019061059b929190610b05565b5060808201518160040190805190602001906105b8929190610b05565b5060a08201518160050190805190602001906105d5929190610b05565b5060c082015181600601555050600060016000805490506105f691906113ce565b9050336001600083815260200190815260200160002060006101000a81548173ffffffffffffffffffffffffffffffffffffffff021916908373ffffffffffffffffffffffffffffffffffffffff1602179055508673ffffffffffffffffffffffffffffffffffffffff166323b872dd33308c6040518463ffffffff1660e01b815260040161068793929190611402565b600060405180830381600087803b1580156106a157600080fd5b505af11580156106b5573d6000803e3d6000fd5b505050507fd2cb479eaa0bc6e73d7c33e0819fdb7b34e0c73c46bf33e909410b37aaf5fac8888888888888886040516106f497969594939291906111af565b60405180910390a1505050505050505050565b6000818154811061071757600080fd5b906000526020600020906007020160009150905080600001805461073a9061136e565b80601f01602080910402602001604051908101604052809291908181526020018280546107669061136e565b80156107b35780601f10610788576101008083540402835291602001916107b3565b820191906000526020600020905b81548152906001019060200180831161079657829003601f168201915b5050505050908060010160009054906101000a900473ffffffffffffffffffffffffffffffffffffffff16908060020180546107ee9061136e565b80601f016020809104026020016040519081016040528092919081815260200182805461081a9061136e565b80156108675780601f1061083c57610100808354040283529160200191610867565b820191906000526020600020905b81548152906001019060200180831161084a57829003601f168201915b50505050509080600301805461087c9061136e565b80601f01602080910402602001604051908101604052809291908181526020018280546108a89061136e565b80156108f55780601f106108ca576101008083540402835291602001916108f5565b820191906000526020600020905b8154815290600101906020018083116108d857829003601f168201915b50505050509080600401805461090a9061136e565b80601f01602080910402602001604051908101604052809291908181526020018280546109369061136e565b80156109835780601f1061095857610100808354040283529160200191610983565b820191906000526020600020905b81548152906001019060200180831161096657829003601f168201915b5050505050908060050180546109989061136e565b80601f01602080910402602001604051908101604052809291908181526020018280546109c49061136e565b8015610a115780601f106109e657610100808354040283529160200191610a11565b820191906000526020600020905b8154815290600101906020018083116109f457829003601f168201915b5050505050908060060154905087565b6060806000805b600080549050811015610ae4578473ffffffffffffffffffffffffffffffffffffffff166001600083815260200190815260200160002060009054906101000a900473ffffffffffffffffffffffffffffffffffffffff1673ffffffffffffffffffffffffffffffffffffffff1603610ad15780838381518110610aaf57610aae611439565b5b602002602001018181525050610acf600183610aef90919063ffffffff16565b505b8080610adc90611468565b915050610a28565b508192505050919050565b60008183610afd91906114b0565b905092915050565b828054610b119061136e565b90600052602060002090601f016020900481019282610b335760008555610b7a565b82601f10610b4c57805160ff1916838001178555610b7a565b82800160010185558215610b7a579182015b82811115610b79578251825591602001919060010190610b5e565b5b509050610b879190610b8b565b5090565b5b80821115610ba4576000816000905550600101610b8c565b5090565b600081519050919050565b600082825260208201905092915050565b6000819050602082019050919050565b600081519050919050565b600082825260208201905092915050565b60005b83811015610c0e578082015181840152602081019050610bf3565b83811115610c1d576000848401525b50505050565b6000601f19601f8301169050919050565b6000610c3f82610bd4565b610c498185610bdf565b9350610c59818560208601610bf0565b610c6281610c23565b840191505092915050565b600073ffffffffffffffffffffffffffffffffffffffff82169050919050565b6000610c9882610c6d565b9050919050565b610ca881610c8d565b82525050565b6000819050919050565b610cc181610cae565b82525050565b600060e0830160008301518482036000860152610ce48282610c34565b9150506020830151610cf96020860182610c9f565b5060408301518482036040860152610d118282610c34565b91505060608301518482036060860152610d2b8282610c34565b91505060808301518482036080860152610d458282610c34565b91505060a083015184820360a0860152610d5f8282610c34565b91505060c0830151610d7460c0860182610cb8565b508091505092915050565b6000610d8b8383610cc7565b905092915050565b6000602082019050919050565b6000610dab82610ba8565b610db58185610bb3565b935083602082028501610dc785610bc4565b8060005b85811015610e035784840389528151610de48582610d7f565b9450610def83610d93565b925060208a01995050600181019050610dcb565b50829750879550505050505092915050565b60006020820190508181036000830152610e2f8184610da0565b905092915050565b6000604051905090565b600080fd5b600080fd5b610e5481610cae565b8114610e5f57600080fd5b50565b600081359050610e7181610e4b565b92915050565b600080fd5b600080fd5b7f4e487b7100000000000000000000000000000000000000000000000000000000600052604160045260246000fd5b610eb982610c23565b810181811067ffffffffffffffff82111715610ed857610ed7610e81565b5b80604052505050565b6000610eeb610e37565b9050610ef78282610eb0565b919050565b600067ffffffffffffffff821115610f1757610f16610e81565b5b610f2082610c23565b9050602081019050919050565b82818337600083830152505050565b6000610f4f610f4a84610efc565b610ee1565b905082815260208101848484011115610f6b57610f6a610e7c565b5b610f76848285610f2d565b509392505050565b600082601f830112610f9357610f92610e77565b5b8135610fa3848260208601610f3c565b91505092915050565b610fb581610c8d565b8114610fc057600080fd5b50565b600081359050610fd281610fac565b92915050565b600080600080600080600080610100898b031215610ff957610ff8610e41565b5b60006110078b828c01610e62565b985050602089013567ffffffffffffffff81111561102857611027610e46565b5b6110348b828c01610f7e565b97505060406110458b828c01610fc3565b965050606089013567ffffffffffffffff81111561106657611065610e46565b5b6110728b828c01610f7e565b955050608089013567ffffffffffffffff81111561109357611092610e46565b5b61109f8b828c01610f7e565b94505060a089013567ffffffffffffffff8111156110c0576110bf610e46565b5b6110cc8b828c01610f7e565b93505060c089013567ffffffffffffffff8111156110ed576110ec610e46565b5b6110f98b828c01610f7e565b92505060e061110a8b828c01610e62565b9150509295985092959890939650565b6000602082840312156111305761112f610e41565b5b600061113e84828501610e62565b91505092915050565b600082825260208201905092915050565b600061116382610bd4565b61116d8185611147565b935061117d818560208601610bf0565b61118681610c23565b840191505092915050565b61119a81610c8d565b82525050565b6111a981610cae565b82525050565b600060e08201905081810360008301526111c9818a611158565b90506111d86020830189611191565b81810360408301526111ea8188611158565b905081810360608301526111fe8187611158565b905081810360808301526112128186611158565b905081810360a08301526112268185611158565b905061123560c08301846111a0565b98975050505050505050565b60006020828403121561125757611256610e41565b5b600061126584828501610fc3565b91505092915050565b600081519050919050565b600082825260208201905092915050565b6000819050602082019050919050565b60006112a68383610cb8565b60208301905092915050565b6000602082019050919050565b60006112ca8261126e565b6112d48185611279565b93506112df8361128a565b8060005b838110156113105781516112f7888261129a565b9750611302836112b2565b9250506001810190506112e3565b5085935050505092915050565b6000602082019050818103600083015261133781846112bf565b905092915050565b7f4e487b7100000000000000000000000000000000000000000000000000000000600052602260045260246000fd5b6000600282049050600182168061138657607f821691505b6020821081036113995761139861133f565b5b50919050565b7f4e487b7100000000000000000000000000000000000000000000000000000000600052601160045260246000fd5b60006113d982610cae565b91506113e483610cae565b9250828210156113f7576113f661139f565b5b828203905092915050565b60006060820190506114176000830186611191565b6114246020830185611191565b61143160408301846111a0565b949350505050565b7f4e487b7100000000000000000000000000000000000000000000000000000000600052603260045260246000fd5b600061147382610cae565b91507fffffffffffffffffffffffffffffffffffffffffffffffffffffffffffffffff82036114a5576114a461139f565b5b600182019050919050565b60006114bb82610cae565b91506114c683610cae565b9250827fffffffffffffffffffffffffffffffffffffffffffffffffffffffffffffffff038211156114fb576114fa61139f565b5b82820190509291505056fea264697066735822122022c5e5eebfc755575307c0f86747c16c5bfcfda5d63ca0a974581ef5a6943ab264736f6c634300080d0033",
  "immutableReferences": {},
  "source": "pragma solidity ^0.8.0;\r\nimport \"@openzeppelin/contracts/utils/math/SafeMath.sol\";\r\nimport \"@openzeppelin/contracts/token/ERC721/ERC721.sol\";\r\nimport \"@openzeppelin/contracts/utils/Counters.sol\";\r\n\r\n//this contract is for the adding more details to the tokenId that we get from nft.sol contract\r\n// and function for sale and etc also\r\ncontract NftFactory {\r\n    //we should make security for the variable to protect them and we just use 256 and 32\r\n    using SafeMath for uint256;\r\n    using SafeMath for uint32;\r\n    //we should protect from counters that used in our contract\r\n    using Counters for Counters.Counter;\r\n    //\r\n    //this array save the all details of nft\r\n    nftDetails[] public nftDetailsArray;\r\n    //this mapping is for the save number of details on array with address for the define who made it\r\n    mapping(uint256 => address) private numberOfNftAndAddress;\r\n    //this calculate the money be as user sended is enough\r\n    modifier paidEnough(uint256 _price) {\r\n        require(msg.value >= _price);\r\n        _;\r\n    }\r\n    //this struct define all details of every nft(name , hash file, ...)\r\n    struct nftDetails {\r\n        string name;\r\n        address contractNft;\r\n        string hashNft;\r\n        string linkNft;\r\n        string description;\r\n        string category;\r\n        uint256 price;\r\n    }\r\n\r\n    event createdNft(\r\n        string _name,\r\n        address _contractNft,\r\n        string _hashNft,\r\n        string _linkNft,\r\n        string _description,\r\n        string _category,\r\n        uint256 _price\r\n    );\r\n\r\n    //this function make the nft and added details to nfts\r\n    //this should pass the address \"contract nft\" for knowing where is form\r\n    //no need to returns because we use the log , it is be better than\r\n    function _createNft(\r\n        uint256 _tokenId,\r\n        string memory _name,\r\n        address _contractNft,\r\n        string memory _hashNft,\r\n        string memory _linkNft,\r\n        string memory _description,\r\n        string memory _category,\r\n        uint256 _price\r\n    ) public {\r\n        //we push details on the array\r\n        nftDetailsArray.push(\r\n            nftDetails(\r\n                _name,\r\n                _contractNft,\r\n                _hashNft,\r\n                _linkNft,\r\n                _description,\r\n                _category,\r\n                _price\r\n            )\r\n        );\r\n        //we pass the number of the nft to the id and id will save with address wallet\r\n        //minus one means we need to start id from one but array is start with zero\r\n        uint256 id = nftDetailsArray.length - 1;\r\n        //save the id of nfts with address wallet\r\n        numberOfNftAndAddress[id] = msg.sender;\r\n        //we should get nft from user who made it and transfer it to smart contract and it done with transferfrom func\r\n        //why we did it,exactly? because it made in another contract,every contract can do this and need to transfer to this contract\r\n        IERC721(_contractNft).transferFrom(msg.sender, address(this), _tokenId);\r\n        //below we have an event that we need to log for successfull or not.\r\n        emit createdNft(\r\n            _name,\r\n            _contractNft,\r\n            _hashNft,\r\n            _linkNft,\r\n            _description,\r\n            _category,\r\n            _price\r\n        );\r\n    }\r\n\r\n    //this function is for the show all nfts that there is in this market\r\n    function showNfts() public view returns (nftDetails[] memory) {\r\n        return nftDetailsArray;\r\n    }\r\n\r\n    //this func show all nft of one person\r\n    function nftOwner(address _ownerAddr)\r\n        public\r\n        view\r\n        returns (uint256[] memory)\r\n    {\r\n        //result is arrays that an address mint some nfts(number of nfts that register)\r\n        uint256[] memory result;\r\n        uint256 count = 0;\r\n\r\n        for (uint256 i = 0; i < nftDetailsArray.length; i++) {\r\n            if (numberOfNftAndAddress[i] == _ownerAddr) {\r\n                //we use the count form counter library for more security\r\n                result[count] = i;\r\n                count.add(1);\r\n            }\r\n        }\r\n        return result;\r\n    }\r\n\r\n    // function transferNft(uint256 _idNft)\r\n    //     public\r\n    //     payable\r\n    //     paidEnough(nftDetailsArray[_idNft].price)\r\n    // {\r\n    //     _transfer(owner[_idNft], msg.sender, _idNft);\r\n    // }\r\n\r\n    // function confirmTransferNft(uint256 _idNft) public {\r\n    //     approve(msg.sender, _idNft);\r\n    // }\r\n}\r\n",
  "sourcePath": "H:\\software installed ssd\\vscode\\projects of  vscode\\blockchain\\project-coin-iran\\contracts\\NftFactory.sol",
  "compiler": {
    "name": "solc",
    "version": "0.8.13+commit.abaa5c0e.Emscripten.clang"
  },
  "schemaVersion": "3.4.4",
  "updatedAt": "2022-04-21T13:57:58.994Z",
  "devdoc": {
    "kind": "dev",
    "methods": {},
    "version": 1
  },
  "userdoc": {
    "kind": "user",
    "methods": {},
    "version": 1
  }
}