{
  "contractName": "NftFactory",
  "abi": [
    {
      "anonymous": false,
      "inputs": [
        {
          "indexed": false,
          "internalType": "uint256",
          "name": "_tokenId",
          "type": "uint256"
        },
        {
          "indexed": false,
          "internalType": "string",
          "name": "_name",
          "type": "string"
        },
        {
          "indexed": false,
          "internalType": "address",
          "name": "_contractNft",
          "type": "address"
        },
        {
          "indexed": false,
          "internalType": "string",
          "name": "_hashNft",
          "type": "string"
        },
        {
          "indexed": false,
          "internalType": "string",
          "name": "_linkNft",
          "type": "string"
        },
        {
          "indexed": false,
          "internalType": "string",
          "name": "_description",
          "type": "string"
        },
        {
          "indexed": false,
          "internalType": "string",
          "name": "_category",
          "type": "string"
        },
        {
          "indexed": false,
          "internalType": "uint256",
          "name": "_price",
          "type": "uint256"
        }
      ],
      "name": "createdNft",
      "type": "event"
    },
    {
      "anonymous": false,
      "inputs": [
        {
          "indexed": false,
          "internalType": "uint256[]",
          "name": "num",
          "type": "uint256[]"
        }
      ],
      "name": "numbersOfNfts",
      "type": "event"
    },
    {
      "anonymous": false,
      "inputs": [
        {
          "indexed": false,
          "internalType": "address",
          "name": "contractAddress",
          "type": "address"
        },
        {
          "indexed": false,
          "internalType": "address",
          "name": "buyer",
          "type": "address"
        },
        {
          "indexed": false,
          "internalType": "uint256",
          "name": "_tokenIds",
          "type": "uint256"
        },
        {
          "indexed": false,
          "internalType": "uint256",
          "name": "_price",
          "type": "uint256"
        }
      ],
      "name": "transferedNft",
      "type": "event"
    },
    {
      "inputs": [
        {
          "internalType": "uint256",
          "name": "",
          "type": "uint256"
        }
      ],
      "name": "nftDetailsArray",
      "outputs": [
        {
          "internalType": "uint256",
          "name": "tokenId",
          "type": "uint256"
        },
        {
          "internalType": "string",
          "name": "name",
          "type": "string"
        },
        {
          "internalType": "address",
          "name": "contractNft",
          "type": "address"
        },
        {
          "internalType": "string",
          "name": "hashNft",
          "type": "string"
        },
        {
          "internalType": "string",
          "name": "linkNft",
          "type": "string"
        },
        {
          "internalType": "string",
          "name": "description",
          "type": "string"
        },
        {
          "internalType": "string",
          "name": "category",
          "type": "string"
        },
        {
          "internalType": "uint256",
          "name": "price",
          "type": "uint256"
        }
      ],
      "stateMutability": "view",
      "type": "function",
      "constant": true
    },
    {
      "inputs": [
        {
          "internalType": "uint256",
          "name": "_tokenId",
          "type": "uint256"
        },
        {
          "internalType": "string",
          "name": "_name",
          "type": "string"
        },
        {
          "internalType": "address",
          "name": "_contractNft",
          "type": "address"
        },
        {
          "internalType": "string",
          "name": "_hashNft",
          "type": "string"
        },
        {
          "internalType": "string",
          "name": "_linkNft",
          "type": "string"
        },
        {
          "internalType": "string",
          "name": "_description",
          "type": "string"
        },
        {
          "internalType": "string",
          "name": "_category",
          "type": "string"
        },
        {
          "internalType": "uint256",
          "name": "_price",
          "type": "uint256"
        }
      ],
      "name": "createNft",
      "outputs": [],
      "stateMutability": "nonpayable",
      "type": "function"
    },
    {
      "inputs": [],
      "name": "showNfts",
      "outputs": [
        {
          "components": [
            {
              "internalType": "uint256",
              "name": "tokenId",
              "type": "uint256"
            },
            {
              "internalType": "string",
              "name": "name",
              "type": "string"
            },
            {
              "internalType": "address",
              "name": "contractNft",
              "type": "address"
            },
            {
              "internalType": "string",
              "name": "hashNft",
              "type": "string"
            },
            {
              "internalType": "string",
              "name": "linkNft",
              "type": "string"
            },
            {
              "internalType": "string",
              "name": "description",
              "type": "string"
            },
            {
              "internalType": "string",
              "name": "category",
              "type": "string"
            },
            {
              "internalType": "uint256",
              "name": "price",
              "type": "uint256"
            }
          ],
          "internalType": "struct NftFactory.nftDetails[]",
          "name": "",
          "type": "tuple[]"
        }
      ],
      "stateMutability": "view",
      "type": "function",
      "constant": true
    },
    {
      "inputs": [],
      "name": "nftOwner",
      "outputs": [
        {
          "internalType": "uint256[]",
          "name": "",
          "type": "uint256[]"
        }
      ],
      "stateMutability": "view",
      "type": "function",
      "constant": true
    },
    {
      "inputs": [
        {
          "internalType": "uint256",
          "name": "_idNft",
          "type": "uint256"
        }
      ],
      "name": "transferNft",
      "outputs": [],
      "stateMutability": "payable",
      "type": "function",
      "payable": true
    }
  ],
  "bytecode": "0x608060405234801561001057600080fd5b5061183f806100206000396000f3fe60806040526004361061004a5760003560e01c80634c39a7491461004f57806353f830fb1461007a578063808f23b5146100a55780638e53f838146100ce578063dd8abf42146100ea575b600080fd5b34801561005b57600080fd5b5061006461012e565b6040516100719190610ecc565b60405180910390f35b34801561008657600080fd5b5061008f6101fa565b60405161009c9190611156565b60405180910390f35b3480156100b157600080fd5b506100cc60048036038101906100c79190611319565b61059e565b005b6100e860048036038101906100e3919061145b565b61082e565b005b3480156100f657600080fd5b50610111600480360381019061010c919061145b565b610a2b565b6040516101259897969594939291906114f0565b60405180910390f35b6060806000805b6000805490508110156101f1573373ffffffffffffffffffffffffffffffffffffffff166001600083815260200190815260200160002060009054906101000a900473ffffffffffffffffffffffffffffffffffffffff1673ffffffffffffffffffffffffffffffffffffffff16036101de57808383815181106101bc576101bb611591565b5b6020026020010181815250506101dc600183610d4b90919063ffffffff16565b505b80806101e9906115ef565b915050610135565b50819250505090565b60606000805480602002602001604051908101604052809291908181526020016000905b828210156105955783829060005260206000209060080201604051806101000160405290816000820154815260200160018201805461025c90611666565b80601f016020809104026020016040519081016040528092919081815260200182805461028890611666565b80156102d55780601f106102aa576101008083540402835291602001916102d5565b820191906000526020600020905b8154815290600101906020018083116102b857829003601f168201915b505050505081526020016002820160009054906101000a900473ffffffffffffffffffffffffffffffffffffffff1673ffffffffffffffffffffffffffffffffffffffff1673ffffffffffffffffffffffffffffffffffffffff16815260200160038201805461034490611666565b80601f016020809104026020016040519081016040528092919081815260200182805461037090611666565b80156103bd5780601f10610392576101008083540402835291602001916103bd565b820191906000526020600020905b8154815290600101906020018083116103a057829003601f168201915b505050505081526020016004820180546103d690611666565b80601f016020809104026020016040519081016040528092919081815260200182805461040290611666565b801561044f5780601f106104245761010080835404028352916020019161044f565b820191906000526020600020905b81548152906001019060200180831161043257829003601f168201915b5050505050815260200160058201805461046890611666565b80601f016020809104026020016040519081016040528092919081815260200182805461049490611666565b80156104e15780601f106104b6576101008083540402835291602001916104e1565b820191906000526020600020905b8154815290600101906020018083116104c457829003601f168201915b505050505081526020016006820180546104fa90611666565b80601f016020809104026020016040519081016040528092919081815260200182805461052690611666565b80156105735780601f1061054857610100808354040283529160200191610573565b820191906000526020600020905b81548152906001019060200180831161055657829003601f168201915b505050505081526020016007820154815250508152602001906001019061021e565b50505050905090565b60006040518061010001604052808a81526020018981526020018873ffffffffffffffffffffffffffffffffffffffff16815260200187815260200186815260200185815260200184815260200183815250908060018154018082558091505060019003906000526020600020906008020160009091909190915060008201518160000155602082015181600101908051906020019061063f929190610d61565b5060408201518160020160006101000a81548173ffffffffffffffffffffffffffffffffffffffff021916908373ffffffffffffffffffffffffffffffffffffffff16021790555060608201518160030190805190602001906106a3929190610d61565b5060808201518160040190805190602001906106c0929190610d61565b5060a08201518160050190805190602001906106dd929190610d61565b5060c08201518160060190805190602001906106fa929190610d61565b5060e0820151816007015550506000600160008054905061071b9190611697565b9050336001600083815260200190815260200160002060006101000a81548173ffffffffffffffffffffffffffffffffffffffff021916908373ffffffffffffffffffffffffffffffffffffffff1602179055508673ffffffffffffffffffffffffffffffffffffffff166323b872dd33308c6040518463ffffffff1660e01b81526004016107ac939291906116cb565b600060405180830381600087803b1580156107c657600080fd5b505af11580156107da573d6000803e3d6000fd5b505050507f5795ed8d3c58f86e2d9411362a59c3b0c5918a383470a6e60fb4c7fe35c577aa898989898989898960405161081b9897969594939291906114f0565b60405180910390a1505050505050505050565b6000818154811061084257610841611591565b5b90600052602060002090600802016007015480341015610897576040517f08c379a000000000000000000000000000000000000000000000000000000000815260040161088e9061174e565b60405180910390fd5b6001600083815260200190815260200160002060009054906101000a900473ffffffffffffffffffffffffffffffffffffffff1673ffffffffffffffffffffffffffffffffffffffff166108fc349081150290604051600060405180830381858888f19350505050158015610910573d6000803e3d6000fd5b506000828154811061092557610924611591565b5b906000526020600020906008020160020160009054906101000a900473ffffffffffffffffffffffffffffffffffffffff1673ffffffffffffffffffffffffffffffffffffffff166323b872dd30336000868154811061098857610987611591565b5b9060005260206000209060080201600001546040518463ffffffff1660e01b81526004016109b8939291906116cb565b600060405180830381600087803b1580156109d257600080fd5b505af11580156109e6573d6000803e3d6000fd5b505050507fdd78d43f654c535dc169866803142ae8004d20bf75ab2e8da3a44deb86f46d4030338434604051610a1f949392919061176e565b60405180910390a15050565b60008181548110610a3b57600080fd5b9060005260206000209060080201600091509050806000015490806001018054610a6490611666565b80601f0160208091040260200160405190810160405280929190818152602001828054610a9090611666565b8015610add5780601f10610ab257610100808354040283529160200191610add565b820191906000526020600020905b815481529060010190602001808311610ac057829003601f168201915b5050505050908060020160009054906101000a900473ffffffffffffffffffffffffffffffffffffffff1690806003018054610b1890611666565b80601f0160208091040260200160405190810160405280929190818152602001828054610b4490611666565b8015610b915780601f10610b6657610100808354040283529160200191610b91565b820191906000526020600020905b815481529060010190602001808311610b7457829003601f168201915b505050505090806004018054610ba690611666565b80601f0160208091040260200160405190810160405280929190818152602001828054610bd290611666565b8015610c1f5780601f10610bf457610100808354040283529160200191610c1f565b820191906000526020600020905b815481529060010190602001808311610c0257829003601f168201915b505050505090806005018054610c3490611666565b80601f0160208091040260200160405190810160405280929190818152602001828054610c6090611666565b8015610cad5780601f10610c8257610100808354040283529160200191610cad565b820191906000526020600020905b815481529060010190602001808311610c9057829003601f168201915b505050505090806006018054610cc290611666565b80601f0160208091040260200160405190810160405280929190818152602001828054610cee90611666565b8015610d3b5780601f10610d1057610100808354040283529160200191610d3b565b820191906000526020600020905b815481529060010190602001808311610d1e57829003601f168201915b5050505050908060070154905088565b60008183610d5991906117b3565b905092915050565b828054610d6d90611666565b90600052602060002090601f016020900481019282610d8f5760008555610dd6565b82601f10610da857805160ff1916838001178555610dd6565b82800160010185558215610dd6579182015b82811115610dd5578251825591602001919060010190610dba565b5b509050610de39190610de7565b5090565b5b80821115610e00576000816000905550600101610de8565b5090565b600081519050919050565b600082825260208201905092915050565b6000819050602082019050919050565b6000819050919050565b610e4381610e30565b82525050565b6000610e558383610e3a565b60208301905092915050565b6000602082019050919050565b6000610e7982610e04565b610e838185610e0f565b9350610e8e83610e20565b8060005b83811015610ebf578151610ea68882610e49565b9750610eb183610e61565b925050600181019050610e92565b5085935050505092915050565b60006020820190508181036000830152610ee68184610e6e565b905092915050565b600081519050919050565b600082825260208201905092915050565b6000819050602082019050919050565b600081519050919050565b600082825260208201905092915050565b60005b83811015610f54578082015181840152602081019050610f39565b83811115610f63576000848401525b50505050565b6000601f19601f8301169050919050565b6000610f8582610f1a565b610f8f8185610f25565b9350610f9f818560208601610f36565b610fa881610f69565b840191505092915050565b600073ffffffffffffffffffffffffffffffffffffffff82169050919050565b6000610fde82610fb3565b9050919050565b610fee81610fd3565b82525050565b60006101008301600083015161100d6000860182610e3a565b50602083015184820360208601526110258282610f7a565b915050604083015161103a6040860182610fe5565b50606083015184820360608601526110528282610f7a565b9150506080830151848203608086015261106c8282610f7a565b91505060a083015184820360a08601526110868282610f7a565b91505060c083015184820360c08601526110a08282610f7a565b91505060e08301516110b560e0860182610e3a565b508091505092915050565b60006110cc8383610ff4565b905092915050565b6000602082019050919050565b60006110ec82610eee565b6110f68185610ef9565b93508360208202850161110885610f0a565b8060005b85811015611144578484038952815161112585826110c0565b9450611130836110d4565b925060208a0199505060018101905061110c565b50829750879550505050505092915050565b6000602082019050818103600083015261117081846110e1565b905092915050565b6000604051905090565b600080fd5b600080fd5b61119581610e30565b81146111a057600080fd5b50565b6000813590506111b28161118c565b92915050565b600080fd5b600080fd5b7f4e487b7100000000000000000000000000000000000000000000000000000000600052604160045260246000fd5b6111fa82610f69565b810181811067ffffffffffffffff82111715611219576112186111c2565b5b80604052505050565b600061122c611178565b905061123882826111f1565b919050565b600067ffffffffffffffff821115611258576112576111c2565b5b61126182610f69565b9050602081019050919050565b82818337600083830152505050565b600061129061128b8461123d565b611222565b9050828152602081018484840111156112ac576112ab6111bd565b5b6112b784828561126e565b509392505050565b600082601f8301126112d4576112d36111b8565b5b81356112e484826020860161127d565b91505092915050565b6112f681610fd3565b811461130157600080fd5b50565b600081359050611313816112ed565b92915050565b600080600080600080600080610100898b03121561133a57611339611182565b5b60006113488b828c016111a3565b985050602089013567ffffffffffffffff81111561136957611368611187565b5b6113758b828c016112bf565b97505060406113868b828c01611304565b965050606089013567ffffffffffffffff8111156113a7576113a6611187565b5b6113b38b828c016112bf565b955050608089013567ffffffffffffffff8111156113d4576113d3611187565b5b6113e08b828c016112bf565b94505060a089013567ffffffffffffffff81111561140157611400611187565b5b61140d8b828c016112bf565b93505060c089013567ffffffffffffffff81111561142e5761142d611187565b5b61143a8b828c016112bf565b92505060e061144b8b828c016111a3565b9150509295985092959890939650565b60006020828403121561147157611470611182565b5b600061147f848285016111a3565b91505092915050565b61149181610e30565b82525050565b600082825260208201905092915050565b60006114b382610f1a565b6114bd8185611497565b93506114cd818560208601610f36565b6114d681610f69565b840191505092915050565b6114ea81610fd3565b82525050565b600061010082019050611506600083018b611488565b8181036020830152611518818a6114a8565b905061152760408301896114e1565b818103606083015261153981886114a8565b9050818103608083015261154d81876114a8565b905081810360a083015261156181866114a8565b905081810360c083015261157581856114a8565b905061158460e0830184611488565b9998505050505050505050565b7f4e487b7100000000000000000000000000000000000000000000000000000000600052603260045260246000fd5b7f4e487b7100000000000000000000000000000000000000000000000000000000600052601160045260246000fd5b60006115fa82610e30565b91507fffffffffffffffffffffffffffffffffffffffffffffffffffffffffffffffff820361162c5761162b6115c0565b5b600182019050919050565b7f4e487b7100000000000000000000000000000000000000000000000000000000600052602260045260246000fd5b6000600282049050600182168061167e57607f821691505b60208210810361169157611690611637565b5b50919050565b60006116a282610e30565b91506116ad83610e30565b9250828210156116c0576116bf6115c0565b5b828203905092915050565b60006060820190506116e060008301866114e1565b6116ed60208301856114e1565b6116fa6040830184611488565b949350505050565b7f74686973206d6f6e6579206973206c65737320616e207374616e646172642000600082015250565b6000611738601f83611497565b915061174382611702565b602082019050919050565b600060208201905081810360008301526117678161172b565b9050919050565b600060808201905061178360008301876114e1565b61179060208301866114e1565b61179d6040830185611488565b6117aa6060830184611488565b95945050505050565b60006117be82610e30565b91506117c983610e30565b9250827fffffffffffffffffffffffffffffffffffffffffffffffffffffffffffffffff038211156117fe576117fd6115c0565b5b82820190509291505056fea26469706673582212206ed9e2ae35f8c146dc2c24a86825fe1d53d5159449d05181c8b0d755f9f60ec864736f6c634300080d0033",
  "immutableReferences": {},
  "source": "pragma solidity ^0.8.0;\r\nimport \"@openzeppelin/contracts/utils/math/SafeMath.sol\";\r\nimport \"@openzeppelin/contracts/token/ERC721/ERC721.sol\";\r\nimport \"@openzeppelin/contracts/utils/Counters.sol\";\r\n\r\n//this contract is for the adding more details to the tokenId that we get from nft.sol contract\r\n// and function for sale and etc also\r\ncontract NftFactory {\r\n    //we should make security for the variable to protect them and we just use 256 and 32\r\n    using SafeMath for uint256;\r\n    using SafeMath for uint32;\r\n    //we should protect from counters that used in our contract\r\n    using Counters for Counters.Counter;\r\n    //\r\n    //this array save the all details of nft\r\n    nftDetails[] public nftDetailsArray;\r\n    //this mapping is for the save number of details on array with address for the define who made it\r\n    mapping(uint256 => address) private numberOfNftAndAddress;\r\n    //this calculate the money be as user sended is enough\r\n    modifier paidEnough(uint256 _price) {\r\n        require(msg.value >= _price, \"this money is less an standard \");\r\n        _;\r\n    }\r\n    //this struct define all details of every nft(name , hash file, ...)\r\n    struct nftDetails {\r\n        uint256 tokenId;\r\n        string name;\r\n        address contractNft;\r\n        string hashNft;\r\n        string linkNft;\r\n        string description;\r\n        string category;\r\n        uint256 price;\r\n    }\r\n\r\n    event createdNft(\r\n        uint256 _tokenId,\r\n        string _name,\r\n        address _contractNft,\r\n        string _hashNft,\r\n        string _linkNft,\r\n        string _description,\r\n        string _category,\r\n        uint256 _price\r\n    );\r\n    event numbersOfNfts(uint256[] num);\r\n\r\n    event transferedNft(\r\n        address contractAddress,\r\n        address buyer,\r\n        uint256 _tokenIds,\r\n        uint256 _price\r\n    );\r\n\r\n    //this function make the nft and added details to nfts\r\n    //this should pass the address \"contract nft\" for knowing where is form\r\n    //no need to returns because we use the log , it is be better than\r\n    function createNft(\r\n        uint256 _tokenId,\r\n        string memory _name,\r\n        address _contractNft,\r\n        string memory _hashNft,\r\n        string memory _linkNft,\r\n        string memory _description,\r\n        string memory _category,\r\n        uint256 _price\r\n    ) public {\r\n        //we push details on the array\r\n        nftDetailsArray.push(\r\n            nftDetails(\r\n                _tokenId,\r\n                _name,\r\n                _contractNft,\r\n                _hashNft,\r\n                _linkNft,\r\n                _description,\r\n                _category,\r\n                _price\r\n            )\r\n        );\r\n        //we pass the number of the nft to the id and id will save with address wallet\r\n        //minus one means we need to start id from one but array is start with zero\r\n        uint256 id = nftDetailsArray.length - 1;\r\n        //save the id of nfts with address wallet\r\n        numberOfNftAndAddress[id] = msg.sender;\r\n        //we should get nft from user who made it and transfer it to smart contract and it done with transferfrom func\r\n        //why we did it,exactly? because it made in another contract,every contract can do this and need to transfer to this contract\r\n        IERC721(_contractNft).transferFrom(msg.sender, address(this), _tokenId);\r\n        //below we have an event that we need to log for successfull or not.\r\n        emit createdNft(\r\n            _tokenId,\r\n            _name,\r\n            _contractNft,\r\n            _hashNft,\r\n            _linkNft,\r\n            _description,\r\n            _category,\r\n            _price\r\n        );\r\n    }\r\n\r\n    //this function is for the show all nfts that there is in this market\r\n    function showNfts() public view returns (nftDetails[] memory) {\r\n        return nftDetailsArray;\r\n    }\r\n\r\n    //this func show all nft of one person\r\n    function nftOwner() public view returns (uint256[] memory) {\r\n        //result is arrays that an address mint some nfts(number of nfts that register)\r\n        uint256[] memory result;\r\n        uint256 count = 0;\r\n\r\n        for (uint256 i = 0; i < nftDetailsArray.length; i++) {\r\n            if (numberOfNftAndAddress[i] == msg.sender) {\r\n                //we use the count form counter library for more security\r\n                result[count] = i;\r\n                count.add(1);\r\n            }\r\n        }\r\n        // emit numbersOfNfts(result);\r\n        return result;\r\n    }\r\n\r\n    function transferNft(uint256 _idNft)\r\n        public\r\n        payable\r\n        paidEnough(nftDetailsArray[_idNft].price)\r\n    {\r\n        payable(numberOfNftAndAddress[_idNft]).transfer(msg.value);\r\n        IERC721(nftDetailsArray[_idNft].contractNft).transferFrom(\r\n            address(this),\r\n            msg.sender,\r\n            nftDetailsArray[_idNft].tokenId\r\n        );\r\n        emit transferedNft(address(this), msg.sender, _idNft, msg.value);\r\n    }\r\n}\r\n",
  "sourcePath": "H:\\software installed ssd\\vscode\\projects of  vscode\\blockchain\\project-coin-iran\\contracts\\NftFactory.sol",
  "compiler": {
    "name": "solc",
    "version": "0.8.13+commit.abaa5c0e.Emscripten.clang"
  },
  "schemaVersion": "3.4.4",
  "updatedAt": "2022-05-13T13:02:57.635Z",
  "networkType": "ethereum",
  "devdoc": {
    "kind": "dev",
    "methods": {},
    "version": 1
  },
  "userdoc": {
    "kind": "user",
    "methods": {},
    "version": 1
  }
}