{
  "contractName": "NftFactory",
  "abi": [
    {
      "anonymous": false,
      "inputs": [
        {
          "indexed": false,
          "internalType": "uint256",
          "name": "id",
          "type": "uint256"
        },
        {
          "indexed": false,
          "internalType": "string",
          "name": "name",
          "type": "string"
        },
        {
          "indexed": false,
          "internalType": "address",
          "name": "addr",
          "type": "address"
        }
      ],
      "name": "createdNft",
      "type": "event"
    },
    {
      "inputs": [
        {
          "internalType": "uint256",
          "name": "",
          "type": "uint256"
        }
      ],
      "name": "nftDetailsArray",
      "outputs": [
        {
          "internalType": "string",
          "name": "name",
          "type": "string"
        },
        {
          "internalType": "string",
          "name": "hashNft",
          "type": "string"
        },
        {
          "internalType": "string",
          "name": "linkNft",
          "type": "string"
        },
        {
          "internalType": "string",
          "name": "description",
          "type": "string"
        },
        {
          "internalType": "string",
          "name": "category",
          "type": "string"
        },
        {
          "internalType": "uint256",
          "name": "price",
          "type": "uint256"
        },
        {
          "internalType": "uint32",
          "name": "percentAfterSelling",
          "type": "uint32"
        }
      ],
      "stateMutability": "view",
      "type": "function"
    },
    {
      "inputs": [
        {
          "internalType": "string",
          "name": "_name",
          "type": "string"
        },
        {
          "internalType": "string",
          "name": "_hashNft",
          "type": "string"
        },
        {
          "internalType": "string",
          "name": "_linkNft",
          "type": "string"
        },
        {
          "internalType": "string",
          "name": "_description",
          "type": "string"
        },
        {
          "internalType": "string",
          "name": "_category",
          "type": "string"
        },
        {
          "internalType": "uint256",
          "name": "_price",
          "type": "uint256"
        },
        {
          "internalType": "uint32",
          "name": "_percentAfterSelling",
          "type": "uint32"
        }
      ],
      "name": "_createNft",
      "outputs": [
        {
          "internalType": "bool",
          "name": "",
          "type": "bool"
        }
      ],
      "stateMutability": "nonpayable",
      "type": "function"
    },
    {
      "inputs": [],
      "name": "showNfts",
      "outputs": [
        {
          "components": [
            {
              "internalType": "string",
              "name": "name",
              "type": "string"
            },
            {
              "internalType": "string",
              "name": "hashNft",
              "type": "string"
            },
            {
              "internalType": "string",
              "name": "linkNft",
              "type": "string"
            },
            {
              "internalType": "string",
              "name": "description",
              "type": "string"
            },
            {
              "internalType": "string",
              "name": "category",
              "type": "string"
            },
            {
              "internalType": "uint256",
              "name": "price",
              "type": "uint256"
            },
            {
              "internalType": "uint32",
              "name": "percentAfterSelling",
              "type": "uint32"
            }
          ],
          "internalType": "struct NftFactory.nftDetails[]",
          "name": "",
          "type": "tuple[]"
        }
      ],
      "stateMutability": "view",
      "type": "function"
    }
  ],
  "bytecode": "0x608060405234801561001057600080fd5b506111cd806100206000396000f3fe608060405234801561001057600080fd5b50600436106100415760003560e01c806353f830fb146100465780635adae3b214610064578063dd8abf4214610094575b600080fd5b61004e6100ca565b60405161005b9190610c07565b60405180910390f35b61007e60048036038101906100799190610dca565b610433565b60405161008b9190610f13565b60405180910390f35b6100ae60048036038101906100a99190610f2e565b61060f565b6040516100c19796959493929190610fc3565b60405180910390f35b60606000805480602002602001604051908101604052809291908181526020016000905b8282101561042a57838290600052602060002090600702016040518060e001604052908160008201805461012190611084565b80601f016020809104026020016040519081016040528092919081815260200182805461014d90611084565b801561019a5780601f1061016f5761010080835404028352916020019161019a565b820191906000526020600020905b81548152906001019060200180831161017d57829003601f168201915b505050505081526020016001820180546101b390611084565b80601f01602080910402602001604051908101604052809291908181526020018280546101df90611084565b801561022c5780601f106102015761010080835404028352916020019161022c565b820191906000526020600020905b81548152906001019060200180831161020f57829003601f168201915b5050505050815260200160028201805461024590611084565b80601f016020809104026020016040519081016040528092919081815260200182805461027190611084565b80156102be5780601f10610293576101008083540402835291602001916102be565b820191906000526020600020905b8154815290600101906020018083116102a157829003601f168201915b505050505081526020016003820180546102d790611084565b80601f016020809104026020016040519081016040528092919081815260200182805461030390611084565b80156103505780601f1061032557610100808354040283529160200191610350565b820191906000526020600020905b81548152906001019060200180831161033357829003601f168201915b5050505050815260200160048201805461036990611084565b80601f016020809104026020016040519081016040528092919081815260200182805461039590611084565b80156103e25780601f106103b7576101008083540402835291602001916103e2565b820191906000526020600020905b8154815290600101906020018083116103c557829003601f168201915b50505050508152602001600582015481526020016006820160009054906101000a900463ffffffff1663ffffffff1663ffffffff1681525050815260200190600101906100ee565b50505050905090565b6000806040518060e001604052808a81526020018981526020018881526020018781526020018681526020018581526020018463ffffffff16815250908060018154018082558091505060019003906000526020600020906007020160009091909190915060008201518160000190805190602001906104b4929190610919565b5060208201518160010190805190602001906104d1929190610919565b5060408201518160020190805190602001906104ee929190610919565b50606082015181600301908051906020019061050b929190610919565b506080820151816004019080519060200190610528929190610919565b5060a0820151816005015560c08201518160060160006101000a81548163ffffffff021916908363ffffffff16021790555050506000600160008054905061057091906110e4565b9050336001600083815260200190815260200160002060006101000a81548173ffffffffffffffffffffffffffffffffffffffff021916908373ffffffffffffffffffffffffffffffffffffffff1602179055507f619e1b05f6bbe642aa31bd0fc7f374082f3777c9ac92b428642799a5bb6c0ec5818a336040516105f793929190611159565b60405180910390a16001915050979650505050505050565b6000818154811061061f57600080fd5b906000526020600020906007020160009150905080600001805461064290611084565b80601f016020809104026020016040519081016040528092919081815260200182805461066e90611084565b80156106bb5780601f10610690576101008083540402835291602001916106bb565b820191906000526020600020905b81548152906001019060200180831161069e57829003601f168201915b5050505050908060010180546106d090611084565b80601f01602080910402602001604051908101604052809291908181526020018280546106fc90611084565b80156107495780601f1061071e57610100808354040283529160200191610749565b820191906000526020600020905b81548152906001019060200180831161072c57829003601f168201915b50505050509080600201805461075e90611084565b80601f016020809104026020016040519081016040528092919081815260200182805461078a90611084565b80156107d75780601f106107ac576101008083540402835291602001916107d7565b820191906000526020600020905b8154815290600101906020018083116107ba57829003601f168201915b5050505050908060030180546107ec90611084565b80601f016020809104026020016040519081016040528092919081815260200182805461081890611084565b80156108655780601f1061083a57610100808354040283529160200191610865565b820191906000526020600020905b81548152906001019060200180831161084857829003601f168201915b50505050509080600401805461087a90611084565b80601f01602080910402602001604051908101604052809291908181526020018280546108a690611084565b80156108f35780601f106108c8576101008083540402835291602001916108f3565b820191906000526020600020905b8154815290600101906020018083116108d657829003601f168201915b5050505050908060050154908060060160009054906101000a900463ffffffff16905087565b82805461092590611084565b90600052602060002090601f016020900481019282610947576000855561098e565b82601f1061096057805160ff191683800117855561098e565b8280016001018555821561098e579182015b8281111561098d578251825591602001919060010190610972565b5b50905061099b919061099f565b5090565b5b808211156109b85760008160009055506001016109a0565b5090565b600081519050919050565b600082825260208201905092915050565b6000819050602082019050919050565b600081519050919050565b600082825260208201905092915050565b60005b83811015610a22578082015181840152602081019050610a07565b83811115610a31576000848401525b50505050565b6000601f19601f8301169050919050565b6000610a53826109e8565b610a5d81856109f3565b9350610a6d818560208601610a04565b610a7681610a37565b840191505092915050565b6000819050919050565b610a9481610a81565b82525050565b600063ffffffff82169050919050565b610ab381610a9a565b82525050565b600060e0830160008301518482036000860152610ad68282610a48565b91505060208301518482036020860152610af08282610a48565b91505060408301518482036040860152610b0a8282610a48565b91505060608301518482036060860152610b248282610a48565b91505060808301518482036080860152610b3e8282610a48565b91505060a0830151610b5360a0860182610a8b565b5060c0830151610b6660c0860182610aaa565b508091505092915050565b6000610b7d8383610ab9565b905092915050565b6000602082019050919050565b6000610b9d826109bc565b610ba781856109c7565b935083602082028501610bb9856109d8565b8060005b85811015610bf55784840389528151610bd68582610b71565b9450610be183610b85565b925060208a01995050600181019050610bbd565b50829750879550505050505092915050565b60006020820190508181036000830152610c218184610b92565b905092915050565b6000604051905090565b600080fd5b600080fd5b600080fd5b600080fd5b7f4e487b7100000000000000000000000000000000000000000000000000000000600052604160045260246000fd5b610c7f82610a37565b810181811067ffffffffffffffff82111715610c9e57610c9d610c47565b5b80604052505050565b6000610cb1610c29565b9050610cbd8282610c76565b919050565b600067ffffffffffffffff821115610cdd57610cdc610c47565b5b610ce682610a37565b9050602081019050919050565b82818337600083830152505050565b6000610d15610d1084610cc2565b610ca7565b905082815260208101848484011115610d3157610d30610c42565b5b610d3c848285610cf3565b509392505050565b600082601f830112610d5957610d58610c3d565b5b8135610d69848260208601610d02565b91505092915050565b610d7b81610a81565b8114610d8657600080fd5b50565b600081359050610d9881610d72565b92915050565b610da781610a9a565b8114610db257600080fd5b50565b600081359050610dc481610d9e565b92915050565b600080600080600080600060e0888a031215610de957610de8610c33565b5b600088013567ffffffffffffffff811115610e0757610e06610c38565b5b610e138a828b01610d44565b975050602088013567ffffffffffffffff811115610e3457610e33610c38565b5b610e408a828b01610d44565b965050604088013567ffffffffffffffff811115610e6157610e60610c38565b5b610e6d8a828b01610d44565b955050606088013567ffffffffffffffff811115610e8e57610e8d610c38565b5b610e9a8a828b01610d44565b945050608088013567ffffffffffffffff811115610ebb57610eba610c38565b5b610ec78a828b01610d44565b93505060a0610ed88a828b01610d89565b92505060c0610ee98a828b01610db5565b91505092959891949750929550565b60008115159050919050565b610f0d81610ef8565b82525050565b6000602082019050610f286000830184610f04565b92915050565b600060208284031215610f4457610f43610c33565b5b6000610f5284828501610d89565b91505092915050565b600082825260208201905092915050565b6000610f77826109e8565b610f818185610f5b565b9350610f91818560208601610a04565b610f9a81610a37565b840191505092915050565b610fae81610a81565b82525050565b610fbd81610a9a565b82525050565b600060e0820190508181036000830152610fdd818a610f6c565b90508181036020830152610ff18189610f6c565b905081810360408301526110058188610f6c565b905081810360608301526110198187610f6c565b9050818103608083015261102d8186610f6c565b905061103c60a0830185610fa5565b61104960c0830184610fb4565b98975050505050505050565b7f4e487b7100000000000000000000000000000000000000000000000000000000600052602260045260246000fd5b6000600282049050600182168061109c57607f821691505b6020821081036110af576110ae611055565b5b50919050565b7f4e487b7100000000000000000000000000000000000000000000000000000000600052601160045260246000fd5b60006110ef82610a81565b91506110fa83610a81565b92508282101561110d5761110c6110b5565b5b828203905092915050565b600073ffffffffffffffffffffffffffffffffffffffff82169050919050565b600061114382611118565b9050919050565b61115381611138565b82525050565b600060608201905061116e6000830186610fa5565b81810360208301526111808185610f6c565b905061118f604083018461114a565b94935050505056fea26469706673582212209955e0e7bcec5b6215844d1d8dce3a3a7224429c295280d135b7509c306053fd64736f6c634300080d0033",
  "immutableReferences": {},
  "source": "pragma solidity ^0.8.0;\r\n\r\ncontract NftFactory {\r\n    nftDetails[] public nftDetailsArray;\r\n\r\n    mapping(uint256 => address) private numberOfNftAndAddress;\r\n\r\n    struct nftDetails {\r\n        string name;\r\n        string hashNft;\r\n        string linkNft;\r\n        string description;\r\n        string category;\r\n        uint256 price;\r\n        uint32 percentAfterSelling;\r\n    }\r\n\r\n    event createdNft(uint256 id, string name, address addr);\r\n\r\n    function _createNft(\r\n        string memory _name,\r\n        string memory _hashNft,\r\n        string memory _linkNft,\r\n        string memory _description,\r\n        string memory _category,\r\n        uint256 _price,\r\n        uint32 _percentAfterSelling\r\n    ) public returns (bool) {\r\n        nftDetailsArray.push(\r\n            nftDetails(\r\n                _name,\r\n                _hashNft,\r\n                _linkNft,\r\n                _description,\r\n                _category,\r\n                _price,\r\n                _percentAfterSelling\r\n            )\r\n        );\r\n        uint256 id = nftDetailsArray.length - 1;\r\n\r\n        numberOfNftAndAddress[id] = msg.sender;\r\n        emit createdNft(id, _name, msg.sender);\r\n        return true;\r\n    }\r\n\r\n    function showNfts() public view returns (nftDetails[] memory) {\r\n        return nftDetailsArray;\r\n    }\r\n}\r\n",
  "sourcePath": "H:\\software installed ssd\\vscode\\projects of  vscode\\blockchain\\project-coin-iran\\contracts\\NftFactory.sol",
  "compiler": {
    "name": "solc",
    "version": "0.8.13+commit.abaa5c0e.Emscripten.clang"
  },
  "schemaVersion": "3.4.4",
  "updatedAt": "2022-04-12T09:08:11.152Z",
  "devdoc": {
    "kind": "dev",
    "methods": {},
    "version": 1
  },
  "userdoc": {
    "kind": "user",
    "methods": {},
    "version": 1
  }
}